:100000000C949D010C94C5010C94C5010C94C50180
:100010000C94C5010C94C5010C94C5010C94C50148
:100020000C94C5010C94C5010C94CD0C0C94540D8A
:100030000C94C5010C94C5010C94C5010C94C50128
:100040000C94C5010C94C5010C94C5010C94C50118
:100050000C94C5010C94C5010C94C5010C947E0749
:100060000C94C5010C94C5010C94C5010C94C501F8
:100070000C94C5010C94C5010C94C5010C94C501E8
:100080000C94C5010C94C5010C94C5010C94C501D8
:100090000C94C5010C94C5010C94C5010C94C501C8
:1000A0000C94C5010C94C5010C94C501000000001E
:1000B000240027002A002D00300000000000250049
:1000C00028002B002E003100000000002300260035
:1000D00029002C002F000404040404030405020278
:1000E00002020403020202020606060606060404D1
:1000F00002020204040802011040804010204080E7
:10010000408008020401804020100201108010206D
:1001100040400000000200080E0000030401000B34
:1001200000000000000000000000000000000000CF
:10013000070605040100080A0B0C0D09080B000254
:10014000020201000904000001020200000524006F
:100150001001052401010104240206052406000102
:100160000705810310004009040100020A00000095
:100170000705020240000007058302400000040357
:1001800009042203410072006400750069006E00DA
:100190006F0020004D006900630072006F002000B6
:1001A00020002000180341007200640075006900FF
:1001B0006E006F0020004C004C0043001201000252
:1001C00000000040412337800001010200011201BC
:1001D00000020200004041233780000101020001BB
:1001E00000C18081C105010902A1010901A10085A9
:1001F00001050919012903150025019503750181E0
:100200000295017505810305010930093109381589
:1002100081257F750895038106C0C005010906A1E7
:10022000018502050719E029E715002501750195EB
:10023000088102950175088103950675081500254A
:10024000650507190029658100C0050C0901A10198
:100250008504150025017501951009E209E909EAEF
:1002600009CD09B709B609B50A8A010A92010A211E
:10027000020A23020A2A020A27020A26020A250281
:100280000A24028162C005010980A1018504198246
:1002900029839502810695068101C00904020001A7
:1002A0000300000009210101000122B600070584B6
:1002B0000340000100000000000000002A2B28007D
:1002C000000000000000000000000000000000002E
:1002D000000000002C9EB4A0A1A2A434A6A7A5AE45
:1002E000362D3738271E1F20212223242526B333FD
:1002F000B62EB7B89F8485868788898A8B8C8D8E29
:100300008F909192939495969798999A9B9C9D2FF4
:100310003130A3AD350405060708090A0B0C0D0E94
:100320000F101112131415161718191A1B1C1DAFD4
:10033000B1B0B500250A070CD70E11241FBECFEFB0
:10034000DAE0DEBFCDBF11E0A0E0B1E0E0EDFFE11B
:1003500002C005900D92A433B107D9F712E0A4E3CF
:10036000B1E001C01D92AD3BB107E1F713E0CAE374
:10037000D3E004C02297FE010E94E20FC433D107EC
:10038000C9F70E94F00A0C94E60F0C9400008091CB
:100390003A0180933A0280913B0180933B02809125
:1003A0003C0180933C0280913D0180933D0280910D
:1003B0003E0180933E0280913F0180933F028091F5
:1003C00040018093400280914101809341028091DD
:1003D000420180934202109243029091440180E0D6
:1003E00020914501820F911D909345028093440214
:1003F0009091460180E020914701820F911D9093DA
:100400004702809346029091480180E02091490183
:10041000820F911D909349028093480290914C0164
:1004200080E020914D01820F911D90934B028093AB
:100430004A02089590E0049633E0880F991F3A9598
:10044000E1F78EBD0DB407FEFDCF8EB57EBD0DB4B8
:1004500007FEFDCF8EB56EBD0DB407FEFDCF8EB588
:100460001EBC0DB407FEFDCF8EB50895CF92DF926E
:10047000EF92FF920F931F93CF93DF937C01C09174
:100480003801D0913901CC0FDD1F00E010E040EAC7
:10049000C42EDD24DA941BC0CEBC0DB407FEFDCF04
:1004A0008EB5DEBD0DB407FEFDCF8EB5CEBD0DB44D
:1004B00007FEFDCF8EB5DEBC0DB407FEFDCF6EB5D9
:1004C00089E992E00E942D0B0F5F1F4F21960E15B8
:1004D0001F0514F380E1DF91CF911F910F91FF90E1
:1004E000EF90DF90CF9008950F931F93CF93DF93FA
:1004F0008C01C0E0D0E022C06091380170913901D8
:1005000080E00E941A02682F89E992E00E942D0B78
:10051000609138017091390181E00E941A02682FC0
:1005200089E992E00E942D0B809138019091390168
:10053000019690933901809338012296C017D10714
:10054000DCF280E1DF91CF911F910F9108958EE051
:1005500060E00E941A0980E160E00E941A098FE0C1
:1005600060E00E941A098AE060E00E941A09109275
:10057000370110923601089583E58CBD8DB58EB597
:100580008AE061E00E941A098AE061E00E94A709FE
:100590008FE061E00E941A098FE060E00E94A709E5
:1005A00062E370E080E090E00E94C6078AE060E0CD
:1005B0000E94A70962E370E080E090E00E94C60715
:1005C0008EE060E00E941A0980E161E00E941A0951
:1005D0008CEA8EBD0DB407FEFDCF8EB583E58EBDD2
:1005E0000DB407FEFDCF8EB51EBC0DB407FEFDCFCA
:1005F0008EB51EBC0DB407FEFDCF8EB581E090E038
:1006000090933701809336010895682F87E00E9408
:10061000A70908950F931F938C0180E090E00E943A
:1006200005038CE48EBD0DB407FEFDCF8EB51EBD57
:100630000DB407FEFDCF8EB50EBD0DB407FEFDCF88
:100640008EB51EBC0DB407FEFDCF8EB56EE170E019
:1006500080E090E00E94C60781E090E00E940503E0
:100660001F910F910895CF92DF92EF92FF920F9317
:100670001F93CF93DF937C018091460290914702B4
:100680008032910531F48091380190913901807F59
:1006900011C08034910531F4809138019091390175
:1006A000807E08C08038910571F480913801909166
:1006B0003901807CCAE3D1E000E010E070E4C72E8D
:1006C00068E4D62E9BC020913801309139018050CA
:1006D000914019F4C9018078EDCFC901EBCF409169
:1006E0004602509147024032510531F420913801C1
:1006F00030913901207F1AC04034510531F42091E6
:10070000380130913901207E11C04038510531F453
:100710002091380130913901207C08C020913801A6
:10072000309139014050514009F4207882179307E5
:1007300061F10E940A038091460290914702803243
:10074000910531F48091380190913901807F1DC06D
:100750008034910531F48091380190913901807E87
:1007600014C08038910531F480913801909139019D
:10077000807C0BC02091380130913901805091402C
:1007800019F4C901807801C0C90120913801309164
:1007900039014881532F622FCEBC0DB407FEFDCF27
:1007A0007EB55EBD0DB407FEFDCF7EB56EBD0DB44A
:1007B00007FEFDCF7EB54EBD0DB407FEFDCF4EB595
:1007C0004981DEBC0DB407FEFDCF7EB55EBD0DB424
:1007D00007FEFDCF5EB56EBD0DB407FEFDCF5EB565
:1007E0004EBD0DB407FEFDCF0E5F1F4F4EB52F5F00
:1007F0003F4F309339012093380122960E151F0583
:100800000CF46DCF0E940A0380E1DF91CF911F911C
:100810000F91FF90EF90DF90CF9008951F93CF93AB
:10082000DF93182FEB01812F61E00E94A7096EE191
:1008300070E080E090E00E94C607812F60E00E9497
:10084000A7096EE170E080E090E00E94C607219762
:100850008FEFCF3FD80739F7DF91CF911F910895E0
:1008600089E992E00E94DB09892BD1F389E992E0C2
:100870000E94020A08950E943004803269F080913B
:1008800034019091350101969093350180933401A4
:1008900089E992E065E155C089E992E064E10E944E
:1008A0002D0B80E38EBD0DB407FEFDCF8EB51EBCB3
:1008B0000DB407FEFDCF8EB51EBC0DB407FEFDCFF7
:1008C0008EB51EBC0DB407FEFDCF6EB589E992E072
:1008D0000E942D0B80E38EBD0DB407FEFDCF8EB5BB
:1008E0001EBC0DB407FEFDCF8EB581E08EBD0DB4EC
:1008F00007FEFDCF8EB51EBC0DB407FEFDCF6EB555
:1009000089E992E00E942D0B80E38EBD0DB407FEB5
:10091000FDCF8EB51EBC0DB407FEFDCF8EB582E0B7
:100920008EBD0DB407FEFDCF8EB51EBC0DB407FE07
:10093000FDCF6EB589E992E00E942D0B89E992E026
:1009400060E10E942D0B0895FF920F931F93CF93A8
:10095000DF930E943004F82E0E943004082F0E947A
:100960003004182F0E943004803269F080913401E5
:10097000909135010196909335018093340189E976
:1009800092E065E11AC09F2D80E0EC01C00FD11DFF
:1009900089E992E064E10E942D0B163421F4CE0126
:1009A0000E94740207C0153411F061E104C0CE0149
:1009B0000E943602682F89E992E00E942D0BDF9198
:1009C000CF911F910F91FF9008951F93182F0E94B0
:1009D0003004803271F489E992E064E10E942D0BC9
:1009E00089E992E0612F0E942D0B89E992E060E194
:1009F0000CC080913401909135010196909335019E
:100A00008093340189E992E065E10E942D0B1F91EA
:100A10000895813861F0823818F4803871F405C087
:100A2000823839F0833949F406C082E007C081E09A
:100A300005C082E103C083E501C080E00E94E504B7
:100A400008950E943004803249F489E992E064E11B
:100A50000E942D0B89E992E060E10CC08091340185
:100A6000909135010196909335018093340189E985
:100A700092E065E10E942D0B08950F931F93CF9391
:100A8000DF938C01C0E0D0E007C00E943004FE017B
:100A9000E65CFE4F80832196C017D107B4F3DF9147
:100AA000CF911F910F910895DF92EF92FF920F93D4
:100AB0001F93CF93DF93182F092F7B01CB010E9447
:100AC0003D0580E090E00E940503212F302FC901F1
:100AD000EC0100E010E0E0ECDE2E21C0F801E65C65
:100AE000FE4FE081DEBC0DB407FEFDCF8EB5DEBD4E
:100AF0000DB407FEFDCF8EB5CEBD0DB407FEFDCF04
:100B00008EB5EEBD0DB407FEFDCF8EB56DE270E083
:100B100080E090E00E94C6070F5F1F4F21960E15E0
:100B20001F05E4F281E090E00E94050380E1DF917F
:100B3000CF911F910F91FF90EF90DF9008950F9349
:100B40001F93CF93DF93BC0120913801309139017D
:100B50008091480290914902861797072CF08901ED
:100B6000000F111FEB0113C08091340190913501EA
:100B70000196909335018093340181E110C0C80142
:100B800060E270E00E945405005E1F4FA097C132E2
:100B9000D105ACF7C801BE010E94540580E1DF9188
:100BA000CF911F910F91089584E090E00E943D0540
:100BB00080913A0190913B0120913C0130913D019F
:100BC0008EBD0DB407FEFDCF8EB59EBD0DB407FEE4
:100BD000FDCF8EB52EBD0DB407FEFDCF8EB53EBD4B
:100BE0000DB407FEFDCF8EB50E94E5040895CF93A6
:100BF000DF93EC010E943D050E943004803261F4D5
:100C000089E992E064E10E942D0BCE010E9433033A
:100C1000682F89E992E00CC08091340190913501F0
:100C20000196909335018093340189E992E065E162
:100C30000E942D0BDF91CF9108950F931F93CF93B7
:100C4000DF930E943004182F00E00E943004E80176
:100C5000C80FD11D0E943004863421F4CE010E94B9
:100C6000F70525C08534F1F4CE010E949F05082FB9
:100C70000E943004803249F489E992E064E10E94E4
:100C80002D0B89E992E0602F10C080913401909182
:100C900035010196909335018093340189E992E002
:100CA00065E103C089E992E061E10E942D0BDF91CB
:100CB000CF911F910F9108950F931F930E943004BD
:100CC000813509F482C08235B8F4813409F446C014
:100CD000823440F4803349F1813361F1803209F08C
:100CE00088C07DC0853409F447C0803509F449C007
:100CF000823409F07EC037C0813609F45AC082368A
:100D000050F4863509F45EC0803609F450C085354C
:100D100009F06FC039C0843709F451C0853709F430
:100D20005BC0843609F065C047C01092350110924F
:100D300034011FC00E943004803209F070C089E97C
:100D400092E064E10E942D0B89E992E060E071E09D
:100D50000E94510B89E992E060E15FC00E9430047B
:100D60000E9409055CC084E190E00E943D050E945C
:100D7000C7010E94210553C085E090E00E943D0517
:100D8000F8CF0E94BC02F5CF0E943004082F10E07B
:100D900010933901009338010E943004382F20E06D
:100DA000200F311F3093390120933801E2CF0E9488
:100DB00030040E943004DDCF0E941D0630C00E9426
:100DC000A4042DC00E94D4052AC0109235011092AF
:100DD00034010E94A702CDCF0E943B0420C0809125
:100DE000340190913501019690933501809334013F
:100DF00011C0809134019091350101969093350195
:100E0000809334010E943004803221F489E992E019
:100E100062E103C089E992E065E10E942D0B1F9118
:100E20000F91089590910801913C28F0809109015B
:100E3000819580930901903228F480910901819570
:100E40008093090160910901690F6093080189E0AD
:100E500070E00E94750864E170E080E090E00E941C
:100E6000C60708958091360190913701892B19F0BA
:100E700087E061E002C087E060E00E94A7098091FE
:100E8000340190913501892B19F088E061E002C0AE
:100E900088E060E00E94A7090E94120789E992E0B9
:100EA0000E94DB09892B11F00E945C06089589E9F4
:100EB00092E040E05BE460E070E00E94DA0987E0E5
:100EC00061E00E941A0987E090E062E070E00E9411
:100ED0000E0488E061E00E941A0988E090E062E078
:100EE00070E00E940E0489E061E00E941A0989E026
:100EF00090E062E070E00E940E0408951F920F924D
:100F00000FB60F9211242F933F938F939F93AF931C
:100F1000BF938091500290915102A0915202B091E2
:100F20005302309154020196A11DB11D232F2D5F54
:100F30002D3720F02D570196A11DB11D209354028D
:100F40008093500290935102A0935202B0935302A7
:100F500080914C0290914D02A0914E02B0914F02AF
:100F60000196A11DB11D80934C0290934D02A09358
:100F70004E02B0934F02BF91AF919F918F913F91DD
:100F80002F910F900FBE0F901F9018959B01AC01F1
:100F90007FB7F89480914C0290914D02A0914E023F
:100FA000B0914F0266B5A89B05C06F3F19F001963E
:100FB000A11DB11D7FBFBA2FA92F982F8827860F9B
:100FC000911DA11DB11D62E0880F991FAA1FBB1FB3
:100FD0006A95D1F7BC012DC0FFB7F89480914C02FF
:100FE00090914D02A0914E02B0914F02E6B5A89BA0
:100FF00005C0EF3F19F00196A11DB11DFFBFBA2F2B
:10100000A92F982F88278E0F911DA11DB11DE2E0F9
:10101000880F991FAA1FBB1FEA95D1F7861B970B54
:10102000885E9340C8F221503040404050406851A3
:101030007C4F211531054105510571F608957894CD
:1010400084B5826084BD84B5816084BD85B58260CD
:1010500085BD85B5816085BDEEE6F0E0808181606B
:101060008083E1E8F0E0108280818260808380816B
:1010700081608083E0E8F0E0808181608083E1E945
:10108000F0E0808182608083808181608083E0E9FC
:10109000F0E0808181608083E1ECF0E08081846019
:1010A0008083808182608083808181608083E3ECA3
:1010B000F0E0808181608083E0ECF0E080818260FC
:1010C0008083E2ECF0E0808181608083EAE7F0E0F9
:1010D0008081846080838081826080838081816060
:1010E000808380818068808308951F93CF93DF93EE
:1010F000182FEB0161E00E941A09209709F48FC0B4
:10110000CF3FD10509F48EC0E12FF0E0EE5EFE4F37
:101110008491883009F440C0893070F4823019F12C
:10112000833020F4813009F077C018C0833001F19A
:10113000843009F071C026C08B3009F44BC08C306C
:1011400030F4893099F18A3009F066C039C08C30AA
:1011500009F44DC08E3009F05FC051C084B580687D
:1011600084BDC7BD63C084B5806284BDC8BD5EC098
:1011700080918000806880938000D0938900C09324
:10118000880054C080918000806280938000D0935A
:101190008B00C0938A004AC0809190008068809341
:1011A0009000D0939900C093980040C08091900027
:1011B000806280939000D0939B00C0939A0036C0C9
:1011C00080919000886080939000D0939D00C093A0
:1011D0009C002CC08091C00080688093C0008091EA
:1011E000C0008F7B8093C000C093CF001FC0809150
:1011F000C00080628093C000C093D00017C080916F
:10120000C20088608093C2008091C2008B7F80936F
:10121000C200C093D2000AC0C038D1051CF4812F8F
:1012200060E002C0812F61E00E94A709DF91CF91A9
:101230001F910895CF93DF93482F50E0CA018C503F
:101240009F4FFC0134914A525F4FFA0184918823E9
:1012500069F190E0880F991FFC01E455FF4FA591BB
:10126000B491FC01E654FF4FC591D491662351F42B
:101270002FB7F8948C91932F909589238C93888124
:1012800089230BC0623061F42FB7F8948C91932FAF
:10129000909589238C938881832B88832FBF06C0E8
:1012A0009FB7F8948C91832B8C939FBFDF91CF9144
:1012B0000895883071F1893068F4823031F18330DB
:1012C00020F4813009F042C01DC0833089F08430A1
:1012D000E9F512C08B3059F18C3028F48930E9F0EF
:1012E0008A30A1F51EC08C3031F18E3079F529C0DD
:1012F000809180008F7703C0809180008F7D8093E4
:101300008000089584B58F7702C084B58F7D84BD39
:101310000895809190008F7707C0809190008F7D15
:1013200003C080919000877F809390000895809102
:10133000C0008F7703C08091C0008F7D8093C00074
:1013400008958091C200877F8093C2000895FF9224
:101350000F931F93F62E482F50E0CA018E5E9E4FCA
:10136000FC012491CA018C509F4FFC0114914A52F8
:101370005F4FFA0104910023C9F0222319F0822F54
:101380000E945909E02FF0E0EE0FFF1FE654FF4FD7
:10139000A591B4919FB7F894FF2021F48C911095FA
:1013A000812302C08C91812B8C939FBF1F910F9141
:1013B000FF900895089520919502309196028091B2
:1013C000970290919802281B390B2F733070C90136
:1013D0000895209195023091960280919702909104
:1013E00098022817390719F42FEF3FEF09C0E09151
:1013F0009702F0919802EB5AFD4F8081282F30E040
:10140000C90108952091950230919602809197022A
:10141000909198022817390719F42FEF3FEF13C066
:10142000E0919702F0919802EB5AFD4F2081809154
:1014300097029091980201968F7390709093980202
:101440008093970230E0C901089510929C02109297
:101450009B0288EE93E0A0E0B0E080939D02909321
:101460009E02A0939F02B093A00288E191E0909326
:101470009A028093990208950F931F93DF93CF935D
:101480000F92CDB7DEB78C0169838091110188235B
:1014900069F083E0BE016F5F7F4F41E050E00E9442
:1014A000280C1816190614F49C0107C081E090E07E
:1014B000F8019383828320E030E0C9010F90CF913F
:1014C000DF911F910F91089583E00E94FD0B089515
:1014D000CF93DF9312C082E00E94880B2FEF8F3FE3
:1014E0009207C9F0E0919502F0919602EB5AFD4FF8
:1014F0008083D0939602C0939502C0919502D091BB
:1015000096022196CF73D0708091970290919802A5
:10151000C817D90701F7DF91CF910895FC018081A9
:101520008E5F808380E86CE371E042E450E00E94CB
:10153000A10B0895FC0181819081913A59F4813287
:1015400009F04CC080E06AE071E047E050E00E94A2
:10155000A10B42C0913209F041C0803239F48AE0D7
:1015600091E067E070E00E94E50B36C0823209F03E
:1015700035C082818093110180910A0190910B0105
:10158000A0910C01B0910D01805B9440A040B0404F
:1015900019F58091110180FD12C087E797E79093BC
:1015A0000108809300082BE088E190E00FB6F894E2
:1015B000A895809360000FBE209360000DC088E165
:1015C0000FB6F89480936000109260000FBEA8954B
:1015D000109201081092000881E0089580E00895BB
:1015E000CF93DF930E941F088FEA92E00E94080CBD
:1015F0000E945707C0E0D0E00E9432072097E1F335
:101600000E940000F9CFCF92DF92EF92FF920F93EA
:101610001F93CF93DF937C016B018A01C0E0D0E080
:101620000FC0D6016D916D01D701ED91FC91019034
:10163000F081E02DC7010995C80FD91F0150104056
:101640000115110571F7CE01DF91CF911F910F9117
:10165000FF90EF90DF90CF900895DC01ED91FC9129
:101660000190F081E02D09950895CF93DF93EC016F
:101670006115710519F420E030E00FC0DB010D9019
:101680000020E9F71197A61BB70BE881F9810280CA
:10169000F381E02DAD0109959C01C901DF91CF9146
:1016A00008950E94350B0895282F8091A902882360
:1016B000C1F057FF1AC015C0289A9093A8028091D4
:1016C000F1008193E217F307B9F74115510539F09D
:1016D0008091F200882319F48BE68093E800AFBF75
:1016E00002C04FEF5FEFCA010895AFB7F8942770BB
:1016F0002093E9008091F200282F30E0241735076D
:101700000CF4A901FB019B01240F311D94E6DACFF3
:10171000DF93CF930F92CDB7DEB7BE016F5F7F4FE0
:1017200041E050E00E94540B019719F02FEF3FEF7A
:1017300003C08981282F30E0C9010F90CF91DF913C
:101740000895FF920F931F93F82E142F052F4091A9
:10175000AC025091AD02212F302FC901DC01FB01F9
:101760006EEF29C0F7FE02C0949101C090812091D4
:10177000AA023091AB0224173507ACF48091E8003F
:101780008570E1F38091E80082FF03C02FEF3FEF07
:1017900017C09093F100C90101968F739070892B47
:1017A00011F46093E8002F5F3F4F3093AB0220931A
:1017B000AA02119731961097A9F6812F902F9C01BC
:1017C000C9011F910F91FF9008959C018091E8003D
:1017D00082FFFCCFF901260F311D03C08091F1007B
:1017E0008193E217F307D1F7289A84E68093A80241
:1017F0008BEF8093E800CB0108958093E9008091FE
:10180000F200882319F08AE38093E8000895089590
:101810001092A90281E08093D70080EA8093D800DB
:1018200082E189BD09B400FEFDCF61E070E080E097
:1018300090E00E94C60780E98093D8008CE08093F6
:10184000E2001092E000559A209A5D982898089539
:101850005F926F927F928F929F92AF92BF92CF9240
:10186000DF92EF92FF920F931F93CF93DF93E82EB7
:10187000842E752E8091A902882371F18B01242F6B
:10188000352FC901EC017AEFF72E67E0962E9E20E6
:1018900050E4552E8E2D90E040E2A42EB12CA822CB
:1018A000B9223AE3632E20E4C22ED12CC822D922D9
:1018B00058C09FB7F8949092E9008091E80085FDA8
:1018C00002C020E004C08091F200252D281B9FBF9C
:1018D000222361F4FA9419F42FEF3FEF4DC061E039
:1018E00070E080E090E00E94C6073BC0822F90E04D
:1018F000C817D9070CF42C2FC21BD1094FB7F89485
:101900009092E900A114B10421F406C01092F100F4
:1019100021502223D9F719C0E7FC03C0F801922F08
:1019200010C0C801322F06C0FC010196E491E0937B
:10193000F10031503323C1F706C081918093F1004B
:1019400091509923D1F7020F111D8091E80085FF76
:1019500005C0209729F4C114D10411F06092E80069
:101960004FBF209709F0A5CF5D9A84E68093A70228
:10197000282D372DC9019C01C901DF91CF911F91FD
:101980000F91FF90EF90DF90CF90BF90AF909F901E
:101990008F907F906F905F9008951F920F920FB677
:1019A0000F9211242F933F934F935F936F937F93E5
:1019B0008F939F93AF93BF93EF93FF938091E10039
:1019C0001092E100982F83FF0FC01092E90081E090
:1019D0008093EB001092EC0082E38093ED00109274
:1019E000A90288E08093F00092FF34C083E08093E6
:1019F000E9008091F200882319F08AE38093E800DF
:101A00008FB7F89492E09093E9009091F2008FBF25
:101A1000992321F089E992E00E94680A8091A70247
:101A2000882351F08091A70281508093A702809172
:101A3000A702882309F45D988091A802882351F0B9
:101A40008091A80281508093A8028091A8028823E7
:101A500009F42898FF91EF91BF91AF919F918F91D9
:101A60007F916F915F914F913F912F910F900FBE9A
:101A70000F901F9018950F931F93DF93CF930F92A2
:101A8000CDB7DEB719828E010F5F1F4FC8010E94CC
:101A90008E0AC8010E94D40F898190E00F90CF91E7
:101AA000DF911F910F9108951F920F920FB60F9221
:101AB0001124EF92FF921F932F933F934F935F93C5
:101AC0006F937F938F939F93AF93BF93EF93FF9306
:101AD000DF93CF93CDB7DEB76197DEBFCDBF109256
:101AE000E9008091E80083FF0FC1FE0131969E015D
:101AF000275F3F4F03C08091F1008193E217F30706
:101B0000D1F7289A84E68093A80282EF8093E800B8
:101B1000998197FF05C08091E80080FFFCCF03C04A
:101B20008EEF8093E800292F30E0C9018076907015
:101B3000892B09F0C2C08A81882329F41092F10010
:101B40001092F100D6C0813009F4D3C0833009F47B
:101B5000D0C0853049F48091E80080FFFCCF8B81B4
:101B600080688093E300C5C0863009F07CC01C818A
:101B7000EF80F8841230C1F51092E9001092AB02A8
:101B80001092AA021092AD021092AC020E943B0D7C
:101B900099E0FE013996DF01292F1D922A95E9F778
:101BA00099871A8791E09E8790E8988B9AEF998B96
:101BB0002091AA023091AB02275F3F4F3C872B87D1
:101BC0008D871092E9001092AB021092AA02F09257
:101BD000AD02E092AC0280E0BF0149E050E00E941B
:101BE000A10B0E943B0D85C01092E9001092AB0240
:101BF0001092AA02F092AD02E092AC02123241F4CD
:101C000082E290E00E94CC0F892B09F476C071C06B
:101C1000113079F488E0E816F10419F481E080933A
:101C2000AE028091AE02882309F06BC0ECEBF1E0CC
:101C300013C0133009F061C08B81882319F4EEE7DB
:101C4000F1E00AC0823019F4E2E8F1E005C0813029
:101C500009F053C0E4EAF1E0449180E8BF0150E0AC
:101C60000E94A10B46C0873009F447C0883021F498
:101C700081E08093F1003DC08930D9F52370307048
:101C8000232BD9F5E1EEF1E091E031E026E39093EA
:101C9000E9003093EB0084918093EC002093ED00F9
:101CA0009F5F3196953099F78EE78093EA00109206
:101CB000EA008B818093A9021CC08F8198851092C5
:101CC000E9001092AB021092AA029093AD028093A9
:101CD000AC028D81882329F4CE0101960E949A0AD4
:101CE00006C0823051F4CE0101960E949D0E8823D9
:101CF00021F08EEF8093E80007C081E28093EB0033
:101D000003C0EEECF1E0A8CF6196DEBFCDBFCF916E
:101D1000DF91FF91EF91BF91AF919F918F917F9153
:101D20006F915F914F913F912F911F91FF90EF9095
:101D30000F900FBE0F901F901895FC01918180812C
:101D4000813A31F4913089F080E0933089F40DC00C
:101D5000813269F49B3021F482818093120105C0A5
:101D60009A3029F482818093130181E0089580E004
:101D70000895EF92FF920F931F938C01E62EDC01E2
:101D8000ED91FC910480F581E02D0995F82ED801A4
:101D9000ED91FC910680F781E02DC8016E2D09952B
:101DA0008F2D90E01F910F91FF90EF90089510926A
:101DB000B0021092B4021092B3028AE291E09093C2
:101DC000B2028093B1020895EF92FF920F931F9396
:101DD000DF93CF930F92CDB7DEB789838B017A0162
:101DE00084E0BE016F5F7F4F41E050E00E94280C0D
:101DF00084E4B801A7010E94280C0F90CF91DF91D5
:101E00001F910F91FF90EF90089582E048E050E01D
:101E10000E94E40E0895FC01168217821086118636
:101E20001286138614823496BF010E94050F08950E
:101E3000DC01683810F0685829C0E62FF0E067FF31
:101E400013C0E058F04081E090E002C0880F991F75
:101E5000EA95E2F7809514962C911497282314960E
:101E60002C93149760E012C0EC54FD4F64916623EC
:101E700019F420E030E01DC067FF08C014968C9173
:101E800014978D7F14968C9314976F77FD0190E0D3
:101E9000662321F08681861709F416829F5F3196AA
:101EA0009630B1F7CD011496BD010E94050F21E0D7
:101EB00030E0C9010895CF93DF93DC01683810F05A
:101EC000685825C0E62FF0E067FF12C0E058F040E8
:101ED00081E090E002C0880F991FEA95E2F714961E
:101EE0002C911497282B14962C93149760E00FC014
:101EF000EC54FD4F64916623D9F167FF08C0149636
:101F00008C911497826014968C9314976F77169621
:101F10008C9116978617A9F117968C9117978617AB
:101F200081F118968C911897861759F119968C9112
:101F30001997861731F11A968C911A97861709F11D
:101F40001B968C911B978617E1F0ED01E0E0F0E025
:101F50009E2F8E81882321F4EA0FFB1F668306C023
:101F60009F5F31962196E630F10591F7963049F45E
:101F700081E090E013969C938E93129720E030E0DE
:101F800007C0CD011496BD010E94050F21E030E08D
:101F9000C901DF91CF91089580E865EE71E046EBCD
:101FA00050E00E94A10B0895FC0180818F5F808327
:101FB00080E86BE972E049E150E00E94A10B0895CE
:101FC000EE0FFF1F0590F491E02D0994F894FFCFD8
:101FD0004156522049535000800800E100000000A3
:101FE00000000101000000003C0A030BDB09020AAB
:101FF000E909640A680A00000000B90E030B5B0FD0
:04200000180F0B0F9B
:00000001FF
