:100000000C9455010C947D010C947D010C947D01A0
:100010000C947D010C947D010C947D010C947D0168
:100020000C947D010C947D010C9410040C949704A5
:100030000C947D010C947D010C947D010C947D0148
:100040000C947D010C947D010C947D010C947D0138
:100050000C947D010C947D010C947D010C948D0118
:100060000C947D010C947D010C947D010C947D0118
:100070000C947D010C947D010C947D010C947D0108
:100080000C947D010C947D010C947D010C947D01F8
:100090000C947D010C947D010C947D010C947D01E8
:1000A0000C947D010C947D010C947D0104030904E2
:1000B0002203410072006400750069006E006F0049
:1000C00020004D006900630072006F0020002000D6
:1000D00020001803410072006400750069006E0082
:1000E0006F0020004C004C00430012010002000091
:1000F000004041233780000101020001120100028B
:10010000020000404123378000010102000100C1CC
:100110008081C1080B0002020201000904000001F5
:10012000020200000524001001052401010104243D
:10013000020605240600010705810310004009049A
:100140000100020A00000007050202400000070546
:10015000830240000005010902A1010901A10085F7
:100160000105091901290315002501950375018170
:10017000029501750581030501093009310938151A
:1001800081257F750895038106C0C005010906A178
:10019000018502050719E029E7150025017501957C
:1001A00008810295017508810395067508150025DB
:1001B000650507190029658100C0050C0901A10129
:1001C0008504150025017501951009E209E909EA80
:1001D00009CD09B709B609B50A8A010A92010A21AF
:1001E000020A23020A2A020A27020A26020A250212
:1001F0000A24028162C005010980A10185041982D7
:1002000029839502810695068101C0090402000137
:100210000300000009210101000122B60007058446
:100220000340000100000000000000002A2B28000D
:1002300000000000000000000000000000000000BE
:10024000000000002C9EB4A0A1A2A434A6A7A5AED5
:10025000362D3738271E1F20212223242526B3338D
:10026000B62EB7B89F8485868788898A8B8C8D8EB9
:100270008F909192939495969798999A9B9C9D2F85
:100280003130A3AD350405060708090A0B0C0D0E25
:100290000F101112131415161718191A1B1C1DAF65
:1002A000B1B0B5004A032A062F0711241FBECFEFB5
:1002B000DAE0DEBFCDBF11E0A0E0B1E0E4EDF0E1B7
:1002C00002C005900D92AA32B107D9F711E0AAE257
:1002D000B1E001C01D92AB39B107E1F712E0CAEA03
:1002E000D2E004C02297FE010E946408C43AD107FC
:1002F000C9F70E9484020C9468080C94000060E125
:1003000077E280E090E00E94D501089568EE73E006
:1003100080E090E00E94D50108951F920F920FB6E1
:100320000F9211242F933F938F939F93AF93BF937B
:1003300080912E0190912F01A0913001B091310157
:10034000309132010196A11DB11D232F2D5F2D3754
:1003500020F02D570196A11DB11D209332018093ED
:100360002E0190932F01A0933001B0933101809121
:100370002A0190912B01A0912C01B0912D010196A1
:10038000A11DB11D80932A0190932B01A0932C01F4
:10039000B0932D01BF91AF919F918F913F912F917C
:1003A0000F900FBE0F901F9018959B01AC017FB767
:1003B000F89480912A0190912B01A0912C01B09189
:1003C0002D0166B5A89B05C06F3F19F00196A11DD0
:1003D000B11D7FBFBA2FA92F982F8827860F911D97
:1003E000A11DB11D62E0880F991FAA1FBB1F6A954E
:1003F000D1F7BC012DC0FFB7F89480912A019091EC
:100400002B01A0912C01B0912D01E6B5A89B05C050
:10041000EF3F19F00196A11DB11DFFBFBA2FA92F03
:10042000982F88278E0F911DA11DB11DE2E0880F26
:10043000991FAA1FBB1FEA95D1F7861B970B885EF1
:100440009340C8F2215030404040504068517C4FAA
:10045000211531054105510571F60895789484B54B
:10046000826084BD84B5816084BD85B5826085BDB0
:1004700085B5816085BDEEE6F0E080818160808396
:10048000E1E8F0E010828081826080838081816079
:100490008083E0E8F0E0808181608083E1E9F0E042
:1004A000808182608083808181608083E0E9F0E0E8
:1004B000808181608083E1ECF0E0808184608083D2
:1004C000808182608083808181608083E3ECF0E0C2
:1004D000808181608083E0ECF0E0808182608083B5
:1004E000E2ECF0E0808181608083EAE7F0E08081E7
:1004F000846080838081826080838081816080834A
:100500008081806880830895CF93DF930E942E02BC
:100510008BE391E00E944B030E948601C0E0D0E093
:100520000E947F012097E1F30E940000F9CF282F5D
:10053000809135018823C1F057FF1AC015C0289A51
:10054000909334018091F1008193E217F307B9F79A
:100550004115510539F08091F200882319F48BE69A
:100560008093E800AFBF02C04FEF5FEFCA0108956C
:10057000AFB7F89427702093E9008091F200282FFC
:1005800030E0241735070CF4A901FB019B01240F6F
:10059000311D94E6DACFDF93CF930F92CDB7DEB75C
:1005A000BE016F5F7F4F41E050E00E9497020197CC
:1005B00019F02FEF3FEF03C08981282F30E0C901E8
:1005C0000F90CF91DF910895FF920F931F93F82E14
:1005D000142F052F4091380150913901212F302FD0
:1005E000C901DC01FB016EEF29C0F7FE02C0949146
:1005F00001C09081209136013091370124173507D1
:10060000ACF48091E8008570E1F38091E80082FF0E
:1006100003C02FEF3FEF17C09093F100C90101967F
:100620008F739070892B11F46093E8002F5F3F4F18
:100630003093370120933601119731961097A9F620
:10064000812F902F9C01C9011F910F91FF90089558
:100650009C018091E80082FFFCCFF901260F311D3B
:1006600003C08091F1008193E217F307D1F7289A34
:1006700084E6809334018BEF8093E800CB010895EA
:100680008093E9008091F200882319F08AE3809337
:10069000E800089508951092350181E08093D70015
:1006A00080EA8093D80082E189BD09B400FEFDCFC5
:1006B00061E070E080E090E00E94D50180E98093E5
:1006C000D8008CE08093E2001092E000559A209AC6
:1006D0005D98289808955F926F927F928F929F9273
:1006E000AF92BF92CF92DF92EF92FF920F931F9340
:1006F000CF93DF93E82E842E752E809135018823C9
:1007000071F18B01242F352FC901EC017AEFF72EFF
:1007100067E0962E9E2050E4552E8E2D90E040E20C
:10072000A42EB12CA822B9223AE3632E20E4C22ED3
:10073000D12CC822D92258C09FB7F8949092E900D2
:100740008091E80085FD02C020E004C08091F200A5
:10075000252D281B9FBF222361F4FA9419F42FEF53
:100760003FEF4DC061E070E080E090E00E94D50175
:100770003BC0822F90E0C817D9070CF42C2FC21B66
:10078000D1094FB7F8949092E900A114B10421F473
:1007900006C01092F10021502223D9F719C0E7FCBE
:1007A00003C0F801922F10C0C801322F06C0FC010F
:1007B0000196E491E093F10031503323C1F706C074
:1007C00081918093F10091509923D1F7020F111D6F
:1007D0008091E80085FF05C0209729F4C114D10459
:1007E00011F06092E8004FBF209709F0A5CF5D9A05
:1007F00084E680933301282D372DC9019C01C9015E
:10080000DF91CF911F910F91FF90EF90DF90CF90EC
:10081000BF90AF909F908F907F906F905F90089562
:100820001F920F920FB60F9211242F933F934F9365
:100830005F936F937F938F939F93AF93BF93EF9348
:10084000FF938091E1001092E100982F83FF0FC089
:100850001092E90081E08093EB001092EC0082E3BB
:100860008093ED001092350188E08093F00092FFB4
:1008700034C083E08093E9008091F200882319F06E
:100880008AE38093E8008FB7F89492E09093E900B0
:100890009091F2008FBF992321F080E891E00E94AF
:1008A0006D0680913301882351F08091330181508E
:1008B0008093330180913301882309F45D988091FE
:1008C0003401882351F080913401815080933401A8
:1008D00080913401882309F42898FF91EF91BF910A
:1008E000AF919F918F917F916F915F914F913F91C8
:1008F0002F910F900FBE0F901F9018950F931F937D
:10090000DF93CF930F92CDB7DEB719828E010F5FC1
:100910001F4FC8010E949306C8010E942C088981BC
:1009200090E00F90CF91DF911F910F9108951F924A
:100930000F920FB60F921124EF92FF921F932F93F5
:100940003F934F935F936F937F938F939F93AF9357
:10095000BF93EF93FF93DF93CF93CDB7DEB761974C
:10096000DEBFCDBF1092E9008091E80083FF0FC188
:10097000FE0131969E01275F3F4F03C08091F10039
:100980008193E217F307D1F7289A84E68093340124
:1009900082EF8093E800998197FF05C08091E8007D
:1009A00080FFFCCF03C08EEF8093E800292F30E05A
:1009B000C90180769070892B09F0C2C08A81882392
:1009C00029F41092F1001092F100D6C0813009F4A0
:1009D000D3C0833009F4D0C0853049F48091E80059
:1009E00080FFFCCF8B8180688093E300C5C0863098
:1009F00009F07CC01C81EF80F8841230C1F51092A0
:100A0000E9001092370110923601109239011092CC
:100A100038010E947E0499E0FE013996DF01292FFA
:100A20001D922A95E9F799871A8791E09E8790E8A9
:100A3000988B9AEF998B2091360130913701275F7F
:100A40003F4F3C872B878D871092E900109237012A
:100A500010923601F0923901E092380180E0BF0136
:100A600049E050E00E94E4020E947E0485C010929A
:100A7000E9001092370110923601F0923901E092AC
:100A80003801123241F482E290E00E942408892B5E
:100A900009F476C071C0113079F488E0E816F104E9
:100AA00019F481E080933A0180913A01882309F09A
:100AB0006BC0EAEEF0E013C0133009F061C08B8127
:100AC000882319F4ECEAF0E00AC0823019F4E0EB74
:100AD000F0E005C0813009F053C0E2EDF0E0449150
:100AE00080E8BF0150E00E94E40246C0873009F46C
:100AF00047C0883021F481E08093F1003DC0893007
:100B0000D9F523703070232BD9F5EFE0F1E091E0B7
:100B100031E026E39093E9003093EB0084918093D9
:100B2000EC002093ED009F5F3196953099F78EE7AA
:100B30008093EA001092EA008B81809335011CC0FB
:100B40008F8198851092E90010923701109236013A
:100B500090933901809338018D81882329F4CE0147
:100B600001960E949F0606C0823051F4CE01019684
:100B70000E94F506882321F08EEF8093E80007C0DD
:100B800081E28093EB0003C0ECEFF0E0A8CF619628
:100B9000DEBFCDBFCF91DF91FF91EF91BF91AF91BC
:100BA0009F918F917F916F915F914F913F912F9185
:100BB0001F91FF90EF900F900FBE0F901F90189510
:100BC00020917C0130917D0180917E0190917F0187
:100BD000281B390B2F733070C901089520917C01B7
:100BE00030917D0180917E0190917F012817390716
:100BF00019F42FEF3FEF09C0E0917E01F0917F01E2
:100C0000E45CFE4F8081282F30E0C90108952091D7
:100C10007C0130917D0180917E0190917F012817A8
:100C2000390719F42FEF3FEF13C0E0917E01F091E7
:100C30007F01E45CFE4F208180917E0190917F01D5
:100C400001968F73907090937F0180937E0130E0C6
:100C5000C9010895109283011092820188EE93E0F9
:100C6000A0E0B0E08093840190938501A093860179
:100C7000B09387018EE091E0909381018093800191
:100C800008950F931F93DF93CF930F92CDB7DEB7E5
:100C90008C01698380910701882369F083E0BE019C
:100CA0006F5F7F4F41E050E00E946B0318161906FA
:100CB00014F49C0107C081E090E0F80193838283E3
:100CC00020E030E0C9010F90CF91DF911F910F918B
:100CD000089583E00E9440030895CF93DF9312C0EC
:100CE00082E00E94CB022FEF8F3F9207C9F0E09184
:100CF0007C01F0917D01E45CFE4F8083D0937D0107
:100D0000C0937C01C0917C01D0917D012196CF736D
:100D1000D07080917E0190917F01C817D90701F7AB
:100D2000DF91CF910895FC0180818E5F808380E800
:100D300063E171E042E450E00E94E4020895FC01A6
:100D400081819081913A59F4813209F04CC080E060
:100D500060E071E047E050E00E94E40242C091325E
:100D600009F041C0803239F480E091E067E070E042
:100D70000E94280336C0823209F035C082818093F8
:100D800007018091000190910101A0910201B091B1
:100D90000301805B9440A040B04019F580910701A9
:100DA00080FD12C087E797E79093010880930008C1
:100DB0002BE088E190E00FB6F894A895809360004E
:100DC0000FBE209360000DC088E10FB6F8948093A9
:100DD0006000109260000FBEA8951092010810925A
:100DE000000881E0089580E00895FC0191818081F0
:100DF000813A31F4913089F080E0933089F40DC06C
:100E0000813269F49B3021F482818093080105C00E
:100E10009A3029F482818093090181E0089580E06D
:100E20000895EF92FF920F931F938C01E62EDC0141
:100E3000ED91FC910480F581E02D0995F82ED80103
:100E4000ED91FC910680F781E02DC8016E2D09958A
:100E50008F2D90E01F910F91FF90EF9008951092C9
:100E60008E01109292011092910180E291E0909394
:100E7000900180938F010895EF92FF920F931F933B
:100E8000DF93CF930F92CDB7DEB789838B017A01C1
:100E900084E0BE016F5F7F4F41E050E00E946B0332
:100EA00084E4B801A7010E946B030F90CF91DF91FA
:100EB0001F910F91FF90EF90089582E048E050E07D
:100EC0000E943C070895FC01168217821086118645
:100ED0001286138614823496BF010E945D0708951E
:100EE000DC01683810F0685829C0E62FF0E067FF91
:100EF00013C0E058F04081E090E002C0880F991FD5
:100F0000EA95E2F7809514962C911497282314966D
:100F10002C93149760E012C0EC5DFD4F6491662342
:100F200019F420E030E01DC067FF08C014968C91D2
:100F300014978D7F14968C9314976F77FD0190E032
:100F4000662321F08681861709F416829F5F319609
:100F50009630B1F7CD011496BD010E945D0721E0E6
:100F600030E0C9010895CF93DF93DC01683810F0B9
:100F7000685825C0E62FF0E067FF12C0E058F04047
:100F800081E090E002C0880F991FEA95E2F714967D
:100F90002C911497282B14962C93149760E00FC073
:100FA000EC5DFD4F64916623D9F167FF08C014968C
:100FB0008C911497826014968C9314976F77169681
:100FC0008C9116978617A9F117968C91179786170B
:100FD00081F118968C911897861759F119968C9172
:100FE0001997861731F11A968C911A97861709F17D
:100FF0001B968C911B978617E1F0ED01E0E0F0E085
:101000009E2F8E81882321F4EA0FFB1F668306C082
:101010009F5F31962196E630F10591F7963049F4BD
:1010200081E090E013969C938E93129720E030E03D
:1010300007C0CD011496BD010E945D0721E030E09C
:10104000C901DF91CF91089580E865E571E046EB35
:1010500050E00E94E4020895FC0180818F5F80834C
:1010600080E86BE072E049E150E00E94E4020895FC
:10107000CF92DF92EF92FF920F931F93CF93DF9364
:101080007C016B018A01C0E0D0E00FC0D6016D91F8
:101090006D01D701ED91FC910190F081E02DC70128
:1010A0000995C80FD91F015010400115110571F79E
:1010B000CE01DF91CF911F910F91FF90EF90DF90C4
:1010C000CF900895EE0FFF1F0590F491E02D099445
:0410D000F894FFCFC2
:1010D40000E10000000000000101000000004106E2
:1010E4003808E0050706EE0569066D0600000000F5
:0A10F40011073808B30770076307FF
:00000001FF
