:100000000C949F010C94C7010C94C7010C94C70178
:100010000C94C7010C94C7010C94C7010C94C70140
:100020000C94C7010C94C7010C94420B0C94C90B9F
:100030000C94C7010C94C7010C94C7010C94C70120
:100040000C94C7010C94C7010C94C7010C94C70110
:100050000C94C7010C94C7010C94C7010C94420680
:100060000C94C7010C94C7010C94C7010C94C701F0
:100070000C94C7010C94C7010C94C7010C94C701E0
:100080000C94C7010C94C7010C94C7010C94C701D0
:100090000C9493040C94C7010C94C7010C94C701F1
:1000A0000C94C7010C94C7010C94C7010000000018
:1000B000240027002A002D00300000000000250049
:1000C00028002B002E003100000000002300260035
:1000D00029002C002F000404040404030405020278
:1000E00002020403020202020606060606060404D1
:1000F00002020204040802011040804010204080E7
:10010000408008020401804020100201108010206D
:1001100040400000000200080E0000030401000B34
:1001200000000000000000000000000000000000CF
:10013000070605040100080A0B0C0D090501090258
:10014000A1010901A1008501050919012903150073
:10015000250195037501810295017505810305014E
:100160000930093109381581257F75089503810605
:10017000C0C005010906A1018502050719E029E7AC
:100180001500250175019508810295017508810307
:100190009506750815002565050719002965810074
:1001A000C0050C0901A10185041500250175019503
:1001B0001009E209E909EA09CD09B709B609B50A42
:1001C0008A010A92010A21020A23020A2A020A2744
:1001D000020A26020A25020A24028162C0050109D8
:1001E00080A10185041982298395028106950681E3
:1001F00001C00904020001030000000921010100FF
:100200000122B60007058403400001000000000041
:100210000000002A2B280000000000000000000061
:1002200000000000000000000000002C9EB4A0A10F
:10023000A2A434A6A7A5AE362D3738271E1F20212D
:100240002223242526B333B62EB7B89F848586870C
:1002500088898A8B8C8D8E8F9091929394959697A6
:1002600098999A9B9C9D2F3130A3AD3504050607C4
:1002700008090A0B0C0D0E0F101112131415161786
:1002800018191A1B1C1DAFB1B0B5000403090422D4
:1002900003410072006400750069006E006F002069
:1002A000004D006900630072006F002000200020F4
:1002B000001803410072006400750069006E006F51
:1002C0000020004C004C004300120100020000001E
:1002D00040412337800001010200011201000202A7
:1002E0000000404123378000010102000100C1806D
:1002F00081C1080B00020202010009040000010292
:10030000020000052400100105240101010424025B
:1003100006052406000107058103100040090401B9
:1003200000020A00000007050202400000070583E2
:1003300002400000BB022F0334087C0A5C0D11242C
:100340001FBECFEFDAE0DEBFCDBF11E0A0E0B1E02D
:10035000EEE5FCE102C005900D92AC37B107D9F78C
:1003600012E0ACE7B1E001C01D92A13BB107E1F79B
:1003700013E0CEE3D3E004C02297FE010E94290ED1
:10038000C433D107C9F70E943D090C942D0E0C947B
:1003900000000F93FC0160832183028343830F914C
:1003A0000895EF92FF920F931F93FC01F62EE42E17
:1003B00006EC11E0C80160810E94F502C8016F2DB2
:1003C0000E947703C8016E2D0E947703C8010E9426
:1003D000BA031F910F91FF90EF900895FF920F9332
:1003E0001F938C01F62E86EC91E0F80160810E944B
:1003F000F50286EC91E06F2D0E94770386EC91E088
:100400000E94BA0386EC91E0F801608142E00E940C
:10041000CB0300ED17E086EC91E00E94FF0202970B
:1004200034F401151105A9F001501040F4CF012B4F
:1004300081F086EC91E00E940803182F86EC91E091
:100440000E940803282F30E0912F80E0282B392BC1
:1004500002C020E030E0C9011F910F91FF90089584
:10046000FF920F931F93CF93DF938C01F62E86ECB0
:1004700091E0F80160810E94F50286EC91E06F2D19
:100480000E94770386EC91E00E94BA0386EC91E02B
:10049000F801608141E00E94CB03C8EED3E086EC16
:1004A00091E00E94FF021816190624F0209749F0E7
:1004B0002197F5CFCD2B29F086EC91E00E9408031F
:1004C00001C080E0DF91CF911F910F91FF900895BF
:1004D000CF93DF93EC016623F1F06FE10E943002CD
:1004E000482F82FF05C04B7FCE016FE10E94D101F2
:1004F0008B8161E00E9439078B8160E00E94C60712
:1005000061E070E080E090E00E948A068B8161E00B
:100510000E94C60709C06DE742E10E94D101CE01E9
:100520006DE744E30E94D101DF91CF910895CF930D
:10053000DF93EC0189818F3F19F062E00E94390757
:1005400086EC91E00E94CF038B818F3F19F0CE01A2
:1005500061E002C0CE0160E00E946802CE0163E16A
:100560000E94EE0120E080509F4F09F421E0822F8D
:10057000DF91CF9108950F938CE791E061E74FEF02
:100580002FEF0FEF0E94C9010F91089560E177E20C
:1005900080E090E00E948A06089568EE73E080E0B3
:1005A00090E00E948A068AE492E00E9415088AE49C
:1005B00092E060E071E00E94B60968EE73E080E0CE
:1005C00090E00E948A068CE791E00E9497028823BF
:1005D00029F08AE492E062E171E004C08AE492E0EA
:1005E0006DE271E00E94B609089581E08093C50133
:1005F0006093A2011092C3011092C401089520914A
:10060000A10130E08091A001281B3109C9010895A2
:100610004091A0018091A101481718F02FEF3FEF02
:100620000AC0E42FF0E0E058FE4F8081282F30E030
:100630004F5F4093A001C9010895E091A00180910E
:10064000A101E81718F0EFEFFFEF06C0F0E0E05867
:10065000FE4F8081E82FF0E0CF01089508951092B9
:10066000C9011092C80188EE93E0A0E0B0E0809349
:10067000CA019093CB01A093CC01B093CD018FE43C
:1006800091E09093C7018093C6010895CF92DF92C5
:10069000EF92FF920F931F93CF93DF937C016B0137
:1006A0008A018091C5018823A1F0C0E0D0E00DC08F
:1006B000D701ED91FC91D601AC0FBD1F0190F081E7
:1006C000E02DC7016C9109952196C017D10780F3E1
:1006D00004C0CB01642F0E947804C801DF91CF9140
:1006E0001F910F91FF90EF90DF90CF900895DF93CF
:1006F000CF930F92CDB7DEB7FC0169838091C5011E
:100700008823C9F08091C401803238F081E090E004
:100710009383828320E030E015C08091C301E82FED
:10072000F0E0ED55FE4F998190838F5F8093C30178
:100730008093C40105C0CE01019661E00E94780457
:1007400021E030E0C9010F90CF91DF9108950F9320
:10075000062F8091A20163EA71E04091C40121E07B
:100760000E9423041092C3011092C4011092C5018B
:100770000F91089561E00E94A7030895413208F0A7
:1007800040E2862F60E871E00E94DA031092A00137
:100790008093A101089521E00E94BE030895109264
:1007A000A0011092A1011092C3011092C4010E94F5
:1007B00024060895382F413210F040E042C0809165
:1007C000D2018823E1F791E09093D2012093D401E4
:1007D0008FEF80933F021092FA0141504093FB014A
:1007E0004F5F9093D3018091D301330F832B80937C
:1007F000D3018091D501813041F41092D5018091CF
:10080000D3018093BB0085EC01C085EE8093BC00D2
:100810008091D2018130E1F38091FA01841710F4C4
:100820004091FA0120E030E00AC0FB01E20FF31F23
:10083000D901A652BE4F8C9180832F5F3F4F241762
:10084000A0F3842F08950F931F93582F122F413236
:1008500010F081E04AC08091D2018823E1F782E064
:100860008093D2010093D4018FEF80933F021092C6
:10087000FA014093FB01AAEDB1E0FB0102C08191B6
:100880008D938E2F861B8417D0F31092D301809105
:10089000D301550F852B8093D3018091D5018130F1
:1008A00041F41092D5018091D3018093BB0085EC77
:1008B00001C085EE8093BC00112321F08091D2010C
:1008C0008230E1F380913F028F3F11F480E00DC050
:1008D00080913F02803211F482E007C080913F0294
:1008E000803311F084E001C083E01F910F910895DF
:1008F000482F613210F081E008958091D201843058
:1009000011F082E0089560931D02ACEFB1E0842FF6
:100910009C01F90102C081918D938E2F841B861753
:10092000D0F380E008951F920F920FB60F9211241A
:100930002F933F934F935F936F937F938F939F93E7
:10094000AF93BF93EF93FF938091B90090E0887FBE
:1009500090708036910509F4F2C081369105CCF58E
:100960008832910509F47BC089329105B4F4803155
:10097000910509F46FC0813191053CF4009709F4A9
:1009800047C1089709F04FC165C08831910509F446
:1009900066C0809709F047C182C08034910509F490
:1009A000A4C08134910544F48033910509F482C0D8
:1009B000C89709F038C189C08035910509F489C00C
:1009C0008835910509F496C08834910509F02BC14A
:1009D000AEC08839910509F413C189399105ECF449
:1009E0008837910509F4ABC0893791054CF48836F6
:1009F000910509F4A4C08037910509F014C19FC086
:100A00008838910509F4FCC08039910509F49DC02E
:100A10008038910509F007C198C0803B910509F421
:100A2000C6C0813B91054CF4803A910509F49FC002
:100A3000883A910509F0F7C0BAC0803C910509F4E5
:100A4000E3C0883C910509F4DFC0883B910509F0BB
:100A5000EAC0C2C08091D3018093BB00CFC0909107
:100A6000FA018091FB01981768F49091FA01E92F3F
:100A7000F0E0E652FE4F80818093BB009F5F909331
:100A8000FA01BCC08091D401882309F44BC085EDE4
:100A90008093BC008091BC0084FDFCCFC2C080E28A
:100AA00080933F0285ED8093BC008091BC0084FD63
:100AB000FCCFB7C080E380933F0285ED8093BC00FC
:100AC0008091BC0084FDFCCFACC088E380933F02E2
:100AD0009BC08091FA019091BB00E82FF0E0E652B4
:100AE000FE4F90838F5F8093FA019091FA0180917D
:100AF000FB0182C08091FA019091BB00E82FF0E0E9
:100B0000E652FE4F90838F5F8093FA018091D4016B
:100B1000882341F085ED8093BC008091BC0084FD6A
:100B2000FCCF7FC081E08093D50184EA6EC085ED63
:100B30008093BC008091BC0084FDFCCF72C083E038
:100B40008093D20110923E0259C080913E028032C1
:100B500008F056C080913E029091BB00E82FF0E073
:100B6000E25EFD4F90838F5F80933E0247C080918D
:100B70003E02803230F4E0913E02F0E0E25EFD4F52
:100B8000108285ED8093BC008091BC0084FDFCCF79
:100B90001092D20160913E02E091D801F091D9010A
:100BA0008EE192E070E0099510923E022DC084E043
:100BB0008093D20110921C0210921D02E091D60186
:100BC000F091D701099580911D02882329F481E0D5
:100BD00080931D021092FC0190911C02E92FF0E01D
:100BE000E450FE4F80818093BB009F5F90931C0276
:100BF00090911C0280911D02981710F485EC01C0A1
:100C000085E88093BC000FC085EC8093BC0009C0D0
:100C100010923F0285ED8093BC008091BC0084FD62
:100C2000FCCF1092D201FF91EF91BF91AF919F91B4
:100C30008F917F916F915F914F913F912F910F9085
:100C40000FBE0F901F9018951092D20181E08093F3
:100C5000D4011092D50182E061E00E94C60783E0D2
:100C600061E00E94C607E9EBF0E080818E7F80831F
:100C700080818D7F808388E48093B80085E48093B1
:100C8000BC0008951F920F920FB60F9211242F935C
:100C90003F938F939F93AF93BF9380914402909122
:100CA0004502A0914602B091470230914802019658
:100CB000A11DB11D232F2D5F2D3720F02D5701963B
:100CC000A11DB11D209348028093440290934502D8
:100CD000A0934602B0934702809140029091410256
:100CE000A0914202B09143020196A11DB11D8093D3
:100CF000400290934102A0934202B0934302BF91FD
:100D0000AF919F918F913F912F910F900FBE0F90B8
:100D10001F9018959B01AC017FB7F8948091400219
:100D200090914102A0914202B091430266B5A89B06
:100D300005C06F3F19F00196A11DB11D7FBFBA2FED
:100D4000A92F982F8827860F911DA11DB11D62E044
:100D5000880F991FAA1FBB1F6A95D1F7BC012DC030
:100D6000FFB7F8948091400290914102A091420215
:100D7000B0914302E6B5A89B05C0EF3F19F001967C
:100D8000A11DB11DFFBFBA2FA92F982F88278E0F45
:100D9000911DA11DB11DE2E0880F991FAA1FBB1F65
:100DA000EA95D1F7861B970B885E9340C8F22150D5
:100DB00030404040504068517C4F2115310541057D
:100DC000510571F60895789484B5826084BD84B528
:100DD000816084BD85B5826085BD85B5816085BD36
:100DE000EEE6F0E0808181608083E1E8F0E010824F
:100DF000808182608083808181608083E0E8F0E090
:100E0000808181608083E1E9F0E08081826080837D
:100E1000808181608083E0E9F0E08081816080836F
:100E2000E1ECF0E080818460808380818260808357
:100E3000808181608083E3ECF0E080818160808349
:100E4000E0ECF0E0808182608083E2ECF0E0808181
:100E500081608083EAE7F0E0808184608083808124
:100E600082608083808181608083808180688083CC
:100E70000895CF93DF93482F50E0CA018C509F4FC5
:100E8000FC0134914A525F4FFA018491882369F141
:100E900090E0880F991FFC01E455FF4FA591B49194
:100EA000FC01E654FF4FC591D491662351F42FB74E
:100EB000F8948C91932F909589238C938881892322
:100EC0000BC0623061F42FB7F8948C91932F9095FA
:100ED00089238C938881832B88832FBF06C09FB77B
:100EE000F8948C91832B8C939FBFDF91CF910895C1
:100EF000883071F1893068F4823031F1833020F428
:100F0000813009F042C01DC0833089F08430E9F59A
:100F100012C08B3059F18C3028F48930E9F08A30D6
:100F2000A1F51EC08C3031F18E3079F529C0809149
:100F300080008F7703C0809180008F7D8093800038
:100F4000089584B58F7702C084B58F7D84BD0895E0
:100F5000809190008F7707C0809190008F7D03C0B3
:100F600080919000877F8093900008958091C000C9
:100F70008F7703C08091C0008F7D8093C00008955B
:100F80008091C200877F8093C2000895FF920F93E3
:100F90001F93F62E482F50E0CA018E5E9E4FFC0133
:100FA0002491CA018C509F4FFC0114914A525F4F0B
:100FB000FA0104910023C9F0222319F0822F0E9424
:100FC0007807E02FF0E0EE0FFF1FE654FF4FA591EA
:100FD000B4919FB7F894FF2021F48C911095812350
:100FE00002C08C91812B8C939FBF1F910F91FF901A
:100FF0000895FC0191818081813A31F4913089F02A
:1010000080E0933089F40DC0813269F49B3021F483
:1010100082818093410105C09A3029F482818093B6
:10102000420181E0089580E008950895EF92FF92D3
:101030000F931F938C01E62EDC01ED91FC9104804F
:10104000F581E02D0995F82ED801ED91FC910680EF
:10105000F781E02DC8016E2D09958F2D90E01F912D
:101060000F91FF90EF9008951092490210924D0257
:1010700010924C028FE591E090934B0280934A02CC
:101080000895EF92FF920F931F93DF93CF930F92E8
:10109000CDB7DEB789838B017A0184E0BE016F5F33
:1010A0007F4F41E050E00E949D0A84E4B801A7010F
:1010B0000E949D0A0F90CF91DF911F910F91FF9099
:1010C000EF90089582E048E050E00E9441080895C2
:1010D000FC011682178210861186128613861482EE
:1010E0003496BF010E9462080895DC01683810F050
:1010F000685829C0E62FF0E067FF13C0E058F040C1
:1011000081E090E002C0880F991FEA95E2F7809590
:1011100014962C911497282314962C93149760E01E
:1011200012C0E55FFD4F6491662319F420E030E0C2
:101130001DC067FF08C014968C9114978D7F14967C
:101140008C9314976F77FD0190E0662321F08681E0
:10115000861709F416829F5F31969630B1F7CD015C
:101160001496BD010E94620821E030E0C901089593
:10117000CF93DF93DC01683810F0685825C0E62F64
:10118000F0E067FF12C0E058F04081E090E002C05C
:10119000880F991FEA95E2F714962C911497282B43
:1011A00014962C93149760E00FC0E55FFD4F649197
:1011B0006623D9F167FF08C014968C91149782605A
:1011C00014968C9314976F7716968C9116978617B2
:1011D000A9F117968C911797861781F118968C9123
:1011E0001897861759F119968C911997861731F12E
:1011F0001A968C911A97861709F11B968C911B975A
:101200008617E1F0ED01E0E0F0E09E2F8E8188236B
:1012100021F4EA0FFB1F668306C09F5F319621967B
:10122000E630F10591F7963049F481E090E01396AD
:101230009C938E93129720E030E007C0CD01149666
:10124000BD010E94620821E030E0C901DF91CF9129
:10125000089580E86CE371E046EB50E00E94160AC6
:101260000895FC0180818F5F808380E862EF71E0E8
:1012700049E150E00E94160A0895CF93DF930E943F
:10128000E3068EE592E00E947D0A0E94CD02C0E056
:10129000D0E00E94C6022097E1F30E940000F9CF3F
:1012A000CF92DF92EF92FF920F931F93CF93DF9332
:1012B0007C016B018A01C0E0D0E00FC0D6016D91C6
:1012C0006D01D701ED91FC910190F081E02DC701F6
:1012D0000995C80FD91F015010400115110571F76C
:1012E000CE01DF91CF911F910F91FF90EF90DF9092
:1012F000CF900895EF92FF920F931F938C01DC0122
:10130000ED91FC910190F081E02D6DE009957C015B
:10131000D801ED91FC910190F081E02DC8016AE0C7
:1013200009959C012E0D3F1DC9011F910F91FF9042
:10133000EF900895CF93DF93EC016115710519F4D7
:1013400020E030E00FC0DB010D900020E9F711979D
:10135000A61BB70BE881F9810280F381E02DAD0176
:1013600009959C01C901DF91CF910895EF92FF92F9
:101370000F931F937C010E949A098C01C7010E9460
:101380007A09080F191FC8011F910F91FF90EF9064
:101390000895282F809158028823C1F057FF1AC062
:1013A00015C0289A909357028091F1008193E2171B
:1013B000F307B9F74115510539F08091F200882300
:1013C00019F48BE68093E800AFBF02C04FEF5FEFE8
:1013D000CA010895AFB7F89427702093E90080916F
:1013E000F200282F30E0241735070CF4A901FB0187
:1013F0009B01240F311D94E6DACFDF93CF930F9238
:10140000CDB7DEB7BE016F5F7F4F41E050E00E9475
:10141000C909019719F02FEF3FEF03C08981282FE9
:1014200030E0C9010F90CF91DF910895FF920F93A3
:101430001F93F82E142F052F40915B0250915C02F0
:10144000212F302FC901DC01FB016EEF29C0F7FE0F
:1014500002C0949101C090812091590230915A02AA
:1014600024173507ACF48091E8008570E1F3809192
:10147000E80082FF03C02FEF3FEF17C09093F10009
:10148000C90101968F739070892B11F46093E80065
:101490002F5F3F4F30935A02209359021197319694
:1014A0001097A9F6812F902F9C01C9011F910F91D0
:1014B000FF9008959C018091E80082FFFCCFF90124
:1014C000260F311D03C08091F1008193E217F307CD
:1014D000D1F7289A84E6809357028BEF8093E80037
:1014E000CB0108958093E9008091F200882319F0E0
:1014F0008AE38093E800089508951092580281E0ED
:101500008093D70080EA8093D80082E189BD09B436
:1015100000FEFDCF61E070E080E090E00E948A066E
:1015200080E98093D8008CE08093E2001092E00084
:10153000559A209A5D98289808955F926F927F92AD
:101540008F929F92AF92BF92CF92DF92EF92FF92D3
:101550000F931F93CF93DF93E82E842E752E8091E7
:101560005802882371F18B01242F352FC901EC011A
:101570007AEFF72E67E0962E9E2050E4552E8E2DA2
:1015800090E040E2A42EB12CA822B9223AE3632EC7
:1015900020E4C22ED12CC822D92258C09FB7F8947B
:1015A0009092E9008091E80085FD02C020E004C02F
:1015B0008091F200252D281B9FBF222361F4FA940D
:1015C00019F42FEF3FEF4DC061E070E080E090E054
:1015D0000E948A063BC0822F90E0C817D9070CF4FE
:1015E0002C2FC21BD1094FB7F8949092E900A11497
:1015F000B10421F406C01092F10021502223D9F742
:1016000019C0E7FC03C0F801922F10C0C801322FA7
:1016100006C0FC010196E491E093F10031503323C0
:10162000C1F706C081918093F10091509923D1F7C1
:10163000020F111D8091E80085FF05C0209729F455
:10164000C114D10411F06092E8004FBF209709F057
:10165000A5CF5D9A84E680935602282D372DC901C7
:101660009C01C901DF91CF911F910F91FF90EF90E5
:10167000DF90CF90BF90AF909F908F907F906F90B2
:101680005F9008951F920F920FB60F9211242F931F
:101690003F934F935F936F937F938F939F93AF93FA
:1016A000BF93EF93FF938091E1001092E100982F98
:1016B00083FF0FC01092E90081E08093EB0010924D
:1016C000EC0082E38093ED001092580288E0809352
:1016D000F00092FF34C083E08093E9008091F20033
:1016E000882319F08AE38093E8008FB7F89492E09A
:1016F0009093E9009091F2008FBF992321F083EA43
:1017000092E00E949F0D80915602882351F08091B3
:10171000560281508093560280915602882309F424
:101720005D9880915702882351F080915702815033
:101730008093570280915702882309F42898FF91DB
:10174000EF91BF91AF919F918F917F916F915F9139
:101750004F913F912F910F900FBE0F901F901895B2
:101760000F931F93DF93CF930F92CDB7DEB71982FC
:101770008E010F5F1F4FC8010E94C50DC8010E9456
:101780003109898190E00F90CF91DF911F910F91E6
:1017900008951F920F920FB60F921124EF92FF92AD
:1017A0001F932F933F934F935F936F937F938F93E9
:1017B0009F93AF93BF93EF93FF93DF93CF93CDB7F7
:1017C000DEB76197DEBFCDBF1092E9008091E800DF
:1017D00083FF0FC1FE0131969E01275F3F4F03C07B
:1017E0008091F1008193E217F307D1F7289A84E6FC
:1017F0008093570282EF8093E800998197FF05C09C
:101800008091E80080FFFCCF03C08EEF8093E8005A
:10181000292F30E0C90180769070892B09F0C2C071
:101820008A81882329F41092F1001092F100D6C029
:10183000813009F4D3C0833009F4D0C0853049F435
:101840008091E80080FFFCCF8B8180688093E3006B
:10185000C5C0863009F07CC01C81EF80F88412304E
:10186000C1F51092E90010925A021092590210929A
:101870005C0210925B020E94B00B99E0FE01399667
:10188000DF01292F1D922A95E9F799871A8791E0A0
:101890009E8790E8988B9AEF998B2091590230910E
:1018A0005A02275F3F4F3C872B878D871092E900B4
:1018B00010925A0210925902F0925C02E0925B027E
:1018C00080E0BF0149E050E00E94160A0E94B00B80
:1018D00085C01092E90010925A0210925902F092BB
:1018E0005C02E0925B02123241F482E290E00E94DC
:1018F0002909892B09F476C071C0113079F488E088
:10190000E816F10419F481E080935D0280915D0294
:10191000882309F06BC0E9ECF2E013C0133009F042
:1019200061C08B81882319F4EBE8F2E00AC08230B1
:1019300019F4EFE8F2E005C0813009F053C0E1EBA3
:10194000F2E0449180E8BF0150E00E94160A46C0D0
:10195000873009F447C0883021F481E08093F1009A
:101960003DC08930D9F523703070232BD9F5EEEEC8
:10197000F2E091E031E026E39093E9003093EB0050
:1019800084918093EC002093ED009F5F3196953019
:1019900099F78EE78093EA001092EA008B8180939A
:1019A00058021CC08F8198851092E90010925A024B
:1019B0001092590290935C0280935B028D81882380
:1019C00029F4CE0101960E94D10D06C0823051F457
:1019D000CE0101960E94F907882321F08EEF8093B3
:1019E000E80007C081E28093EB0003C0EBEDF2E07A
:1019F000A8CF6196DEBFCDBFCF91DF91FF91EF9170
:101A0000BF91AF919F918F917F916F915F914F9116
:101A10003F912F911F91FF90EF900F900FBE0F906D
:101A20001F90189520919F023091A0028091A102F1
:101A30009091A202281B390B2F733070C9010895B1
:101A400020919F023091A0028091A1029091A20268
:101A50002817390719F42FEF3FEF09C0E091A102D1
:101A6000F091A202E15AFD4F8081282F30E0C90198
:101A7000089520919F023091A0028091A10290913F
:101A8000A2022817390719F42FEF3FEF13C0E09196
:101A9000A102F091A202E15AFD4F20818091A102A2
:101AA0009091A20201968F7390709093A2028093FE
:101AB000A10230E0C90108951092A6021092A50279
:101AC00088EE93E0A0E0B0E08093A7029093A80294
:101AD000A093A902B093AA028DE691E09093A4028C
:101AE0008093A30208950F931F93DF93CF930F92D8
:101AF000CDB7DEB78C01698380914A01882369F0F4
:101B000083E0BE016F5F7F4F41E050E00E949D0A7D
:101B10001816190614F49C0107C081E090E0F80142
:101B20009383828320E030E0C9010F90CF91DF9151
:101B30001F910F91089583E00E94720A0895CF9338
:101B4000DF9312C082E00E94FD092FEF8F3F9207C2
:101B5000C9F0E0919F02F091A002E15AFD4F80830D
:101B6000D093A002C0939F02C0919F02D091A00287
:101B70002196CF73D0708091A1029091A202C817D4
:101B8000D90701F7DF91CF910895FC0180818E5F25
:101B9000808380E862EF72E042E450E00E94160A1F
:101BA0000895FC0181819081913A59F4813209F0C4
:101BB0004CC080E063E471E047E050E00E94160A08
:101BC00042C0913209F041C0803239F483E491E09F
:101BD00067E070E00E945A0A36C0823209F035C0D0
:101BE000828180934A018091430190914401A091A8
:101BF0004501B0914601805B9440A040B04019F58A
:101C000080914A0180FD12C087E797E79093010811
:101C1000809300082BE088E190E00FB6F894A89537
:101C2000809360000FBE209360000DC088E10FB666
:101C3000F89480936000109260000FBEA8951092F7
:101C400001081092000881E0089580E00895EE0FE9
:0E1C5000FF1F0590F491E02D0994F894FFCF4A
:101C5E00234D435520436F6E6E6563746564204F4C
:101C6E004B0023494F20457870616E646572206683
:101C7E006F756E64206174203078303000235358B5
:101C8E003135303920494E4954204641494C45445E
:101C9E0000010100E10000000000000000000077DC
:101CAE00034603FF0208031D032E03000000001667
:101CBE00085009B8087508680800000000730D5038
:0C1CCE0009120D390D200D9B0D9F0D001B
:00000001FF
