:100000000C9455010C947D010C947D010C947D01A0
:100010000C947D010C947D010C947D010C947D0168
:100020000C947D010C947D010C94E6050C946D06F6
:100030000C947D010C947D010C947D010C947D0148
:100040000C947D010C947D010C947D010C947D0138
:100050000C947D010C947D010C947D010C94A601FF
:100060000C947D010C947D010C947D010C947D0118
:100070000C947D010C947D010C947D010C947D0108
:100080000C947D010C947D010C947D010C947D01F8
:100090000C947D010C947D010C947D010C947D01E8
:1000A0000C947D010C947D010C947D0105010902E5
:1000B000A1010901A1008501050919012903150004
:1000C00025019503750181029501750581030501DF
:1000D0000930093109381581257F75089503810696
:1000E000C0C005010906A1018502050719E029E73D
:1000F0001500250175019508810295017508810398
:100100009506750815002565050719002965810004
:10011000C0050C0901A10185041500250175019593
:100120001009E209E909EA09CD09B709B609B50AD2
:100130008A010A92010A21020A23020A2A020A27D4
:10014000020A26020A25020A24028162C005010968
:1001500080A1018504198229839502810695068173
:1001600001C009040200010300000009210101008F
:100170000122B600070584034000010000000000D2
:100180000000002A2B2800000000000000000000F2
:1001900000000000000000000000002C9EB4A0A1A0
:1001A000A2A434A6A7A5AE362D3738271E1F2021BE
:1001B0002223242526B333B62EB7B89F848586879D
:1001C00088898A8B8C8D8E8F909192939495969737
:1001D00098999A9B9C9D2F3130A3AD350405060755
:1001E00008090A0B0C0D0E0F101112131415161717
:1001F00018191A1B1C1DAFB1B0B500040309042265
:1002000003410072006400750069006E006F0020F9
:10021000004D006900630072006F00200020002084
:10022000001803410072006400750069006E006FE1
:100230000020004C004C00430012010002000000AE
:100240004041233780000101020001120100020237
:100250000000404123378000010102000100C180FD
:1002600081C1080B00020202010009040000010222
:1002700002000005240010010524010101042402EC
:10028000060524060001070581031000400904014A
:1002900000020A0000000705020240000007058373
:1002A00002400000D8022005000811241FBECFEF35
:1002B000DAE0DEBFCDBF11E0A0E0B1E0E6EAF1E1B7
:1002C00002C005900D92A835B107D9F711E0A8E555
:1002D000B1E001C01D92A93CB107E1F712E0CAEA02
:1002E000D2E004C02297FE010E94CD08C43AD10793
:1002F000C9F70E94E1030C94D1080C94000060E15E
:1003000077E280E090E00E94EE0108950F931F9342
:1003100068EE73E080E090E00E94EE0102E611E0FA
:10032000C8010E94B902C80160E071E00E945A044D
:1003300068EE73E080E090E00E94EE01C80162E1A7
:1003400071E00E945A041F910F9108951F920F921D
:100350000FB60F9211242F933F938F939F93AF93D8
:10036000BF9380915C0190915D01A0915E01B0917D
:100370005F01309160010196A11DB11D232F2D5FFA
:100380002D3720F02D570196A11DB11D209360013E
:1003900080935C0190935D01A0935E01B0935F0137
:1003A0008091580190915901A0915A01B0915B013F
:1003B0000196A11DB11D8093580190935901A093FE
:1003C0005A01B0935B01BF91AF919F918F913F9183
:1003D0002F910F900FBE0F901F9018959B01AC01AD
:1003E0007FB7F8948091580190915901A0915A01DA
:1003F000B0915B0166B5A89B05C06F3F19F00196EF
:10040000A11DB11D7FBFBA2FA92F982F8827860F56
:10041000911DA11DB11D62E0880F991FAA1FBB1F6E
:100420006A95D1F7BC012DC0FFB7F89480915801AF
:1004300090915901A0915A01B0915B01E6B5A89B3A
:1004400005C0EF3F19F00196A11DB11DFFBFBA2FE6
:10045000A92F982F88278E0F911DA11DB11DE2E0B5
:10046000880F991FAA1FBB1FEA95D1F7861B970B10
:10047000885E9340C8F2215030404040504068515F
:100480007C4F211531054105510571F60895789489
:1004900084B5826084BD84B5816084BD85B5826089
:1004A00085BD85B5816085BDEEE6F0E08081816027
:1004B0008083E1E8F0E01082808182608083808127
:1004C00081608083E0E8F0E0808181608083E1E901
:1004D000F0E0808182608083808181608083E0E9B8
:1004E000F0E0808181608083E1ECF0E080818460D5
:1004F0008083808182608083808181608083E3EC5F
:10050000F0E0808181608083E0ECF0E080818260B7
:100510008083E2ECF0E0808181608083EAE7F0E0B4
:10052000808184608083808182608083808181601B
:1005300080838081806880830895FC01918180811F
:10054000813A31F4913089F080E0933089F40DC024
:10055000813269F49B3021F4828180932D0105C0A2
:100560009A3029F4828180932E0181E0089580E001
:1005700008950895EF92FF920F931F938C01E62E3A
:10058000DC01ED91FC910480F581E02D0995F82EB8
:10059000D801ED91FC910680F781E02DC8016E2D08
:1005A00009958F2D90E01F910F91FF90EF90089586
:1005B0001092610110926501109264018BE391E049
:1005C00090936301809362010895EF92FF920F93DD
:1005D0001F93DF93CF930F92CDB7DEB789838B0143
:1005E0007A0184E0BE016F5F7F4F41E050E00E94DE
:1005F000410584E4B801A7010E9441050F90CF9105
:10060000DF911F910F91FF90EF90089582E048E0F5
:1006100050E00E94E5020895FC01168217821086C0
:1006200011861286138614823496BF010E94060337
:100630000895DC01683810F0685829C0E62FF0E012
:1006400067FF13C0E058F04081E090E002C0880FDF
:10065000991FEA95E2F7809514962C911497282318
:1006600014962C93149760E012C0E558FE4F6491E5
:10067000662319F420E030E01DC067FF08C014961F
:100680008C9114978D7F14968C9314976F77FD013E
:1006900090E0662321F08681861709F416829F5F19
:1006A00031969630B1F7CD011496BD010E94060334
:1006B00021E030E0C9010895CF93DF93DC01683871
:1006C00010F0685825C0E62FF0E067FF12C0E05830
:1006D000F04081E090E002C0880F991FEA95E2F7B0
:1006E00014962C911497282B14962C93149760E051
:1006F0000FC0E558FE4F64916623D9F167FF08C02B
:1007000014968C911497826014968C9314976F773B
:1007100016968C9116978617A9F117968C911797B4
:10072000861781F118968C911897861759F11996AA
:100730008C911997861731F11A968C911A97861712
:1007400009F11B968C911B978617E1F0ED01E0E013
:10075000F0E09E2F8E81882321F4EA0FFB1F668331
:1007600006C09F5F31962196E630F10591F79630ED
:1007700049F481E090E013969C938E93129720E0C9
:1007800030E007C0CD011496BD010E94060321E0B0
:1007900030E0C901DF91CF91089580E86CEA70E004
:1007A00046EB50E00E94BA040895FC0180818F5FFF
:1007B000808380E862E671E049E150E00E94BA047B
:1007C0000895CF93DF930E94470286E791E00E944D
:1007D00021050E948601C0E0D0E00E947F012097A1
:1007E000E1F30E940000F9CFCF92DF92EF92FF92E7
:1007F0000F931F93CF93DF937C016B018A01C0E0BD
:10080000D0E00FC0D6016D916D01D701ED91FC9143
:100810000190F081E02DC7010995C80FD91F015043
:1008200010400115110571F7CE01DF91CF911F9195
:100830000F91FF90EF90DF90CF900895EF92FF928D
:100840000F931F938C01DC01ED91FC910190F081DD
:10085000E02D6DE009957C01D801ED91FC910190AE
:10086000F081E02DC8016AE009959C012E0D3F1D25
:10087000C9011F910F91FF90EF900895CF93DF93DF
:10088000EC016115710519F420E030E00FC0DB01C7
:100890000D900020E9F71197A61BB70BE881F981AD
:1008A0000280F381E02DAD0109959C01C901DF9122
:1008B000CF910895EF92FF920F931F937C010E94B6
:1008C0003E048C01C7010E941E04080F191FC801B5
:1008D0001F910F91FF90EF900895282F8091700144
:1008E0008823C1F057FF1AC015C0289A90936F0152
:1008F0008091F1008193E217F307B9F74115510593
:1009000039F08091F200882319F48BE68093E80097
:10091000AFBF02C04FEF5FEFCA010895AFB7F894C1
:1009200027702093E9008091F200282F30E02417EF
:1009300035070CF4A901FB019B01240F311D94E63E
:10094000DACFDF93CF930F92CDB7DEB7BE016F5FE3
:100950007F4F41E050E00E946D04019719F02FEFA6
:100960003FEF03C08981282F30E0C9010F90CF915C
:10097000DF910895FF920F931F93F82E142F052FE8
:100980004091730150917401212F302FC901DC0176
:10099000FB016EEF29C0F7FE02C0949101C0908167
:1009A000209171013091720124173507ACF48091C8
:1009B000E8008570E1F38091E80082FF03C02FEF2B
:1009C0003FEF17C09093F100C90101968F739070AB
:1009D000892B11F46093E8002F5F3F4F3093720131
:1009E00020937101119731961097A9F6812F902FBE
:1009F0009C01C9011F910F91FF9008959C01809166
:100A0000E80082FFFCCFF901260F311D03C0809161
:100A1000F1008193E217F307D1F7289A84E68093D7
:100A20006F018BEF8093E800CB0108958093E9007C
:100A30008091F200882319F08AE38093E8000895FA
:100A400008951092700181E08093D70080EA80932E
:100A5000D80082E189BD09B400FEFDCF61E070E0FD
:100A600080E090E00E94EE0180E98093D8008CE065
:100A70008093E2001092E000559A209A5D982898A1
:100A800008955F926F927F928F929F92AF92BF92E2
:100A9000CF92DF92EF92FF920F931F93CF93DF934A
:100AA000E82E842E752E80917001882371F18B01C0
:100AB000242F352FC901EC017AEFF72E67E0962E2F
:100AC0009E2050E4552E8E2D90E040E2A42EB12CB5
:100AD000A822B9223AE3632E20E4C22ED12CC822E8
:100AE000D92258C09FB7F8949092E9008091E8000D
:100AF00085FD02C020E004C08091F200252D281B56
:100B00009FBF222361F4FA9419F42FEF3FEF4DC0F9
:100B100061E070E080E090E00E94EE013BC0822F37
:100B200090E0C817D9070CF42C2FC21BD1094FB77E
:100B3000F8949092E900A114B10421F406C0109237
:100B4000F10021502223D9F719C0E7FC03C0F801B6
:100B5000922F10C0C801322F06C0FC010196E4910B
:100B6000E093F10031503323C1F706C081918093A7
:100B7000F10091509923D1F7020F111D8091E800E7
:100B800085FF05C0209729F4C114D10411F06092AB
:100B9000E8004FBF209709F0A5CF5D9A84E68093C7
:100BA0006E01282D372DC9019C01C901DF91CF911C
:100BB0001F910F91FF90EF90DF90CF90BF90AF907B
:100BC0009F908F907F906F905F9008951F920F92EB
:100BD0000FB60F9211242F933F934F935F936F9310
:100BE0007F938F939F93AF93BF93EF93FF938091E6
:100BF000E1001092E100982F83FF0FC01092E900EE
:100C000081E08093EB001092EC0082E38093ED0092
:100C10001092700188E08093F00092FF34C083E06E
:100C20008093E9008091F200882319F08AE3809391
:100C3000E8008FB7F89492E09093E9009091F20069
:100C40008FBF992321F08BEB91E00E9443088091A4
:100C50006E01882351F080916E01815080936E0166
:100C600080916E01882309F45D9880916F0188233B
:100C700051F080916F01815080936F0180916F01DD
:100C8000882309F42898FF91EF91BF91AF919F912C
:100C90008F917F916F915F914F913F912F910F9025
:100CA0000FBE0F901F9018950F931F93DF93CF9354
:100CB0000F92CDB7DEB719828E010F5F1F4FC801AB
:100CC0000E946908C8010E94D503898190E00F90B5
:100CD000CF91DF911F910F9108951F920F920FB640
:100CE0000F921124EF92FF921F932F933F934F93F4
:100CF0005F936F937F938F939F93AF93BF93EF9384
:100D0000FF93DF93CF93CDB7DEB76197DEBFCDBF43
:100D10001092E9008091E80083FF0FC1FE01319637
:100D20009E01275F3F4F03C08091F1008193E2173E
:100D3000F307D1F7289A84E680936F0182EF8093BE
:100D4000E800998197FF05C08091E80080FFFCCF03
:100D500003C08EEF8093E800292F30E0C901807630
:100D60009070892B09F0C2C08A81882329F41092DF
:100D7000F1001092F100D6C0813009F4D3C0833065
:100D800009F4D0C0853049F48091E80080FFFCCFA1
:100D90008B8180688093E300C5C0863009F07CC0F9
:100DA0001C81EF80F8841230C1F51092E900109296
:100DB00072011092710110927401109273010E94DD
:100DC000540699E0FE013996DF01292F1D922A95DC
:100DD000E9F799871A8791E09E8790E8988B9AEFB8
:100DE000998B2091710130917201275F3F4F3C87B1
:100DF0002B878D871092E900109272011092710179
:100E0000F0927401E092730180E0BF0149E050E08C
:100E10000E94BA040E94540685C01092E900109204
:100E2000720110927101F0927401E092730112321A
:100E300041F482E290E00E94CD03892B09F476C050
:100E400071C0113079F488E0E816F10419F481E0FA
:100E50008093750180917501882309F06BC0E9E3E7
:100E6000F2E013C0133009F061C08B81882319F4BC
:100E7000EBEFF1E00AC0823019F4EFEFF1E005C0CA
:100E8000813009F053C0E1E2F2E0449180E8BF0113
:100E900050E00E94BA0446C0873009F447C0883049
:100EA00021F481E08093F1003DC08930D9F52370B1
:100EB0003070232BD9F5EEE5F2E091E031E026E346
:100EC0009093E9003093EB0084918093EC002093A1
:100ED000ED009F5F3196953099F78EE78093EA0099
:100EE0001092EA008B81809370011CC08F819885DD
:100EF0001092E900109272011092710190937401A6
:100F0000809373018D81882329F4CE0101960E947C
:100F1000750806C0823051F4CE0101960E949D02F0
:100F2000882321F08EEF8093E80007C081E2809350
:100F3000EB0003C0EBE4F2E0A8CF6196DEBFCDBFCB
:100F4000CF91DF91FF91EF91BF91AF919F918F91E1
:100F50007F916F915F914F913F912F911F91FF90E2
:100F6000EF900F900FBE0F901F9018952091B70132
:100F70003091B8018091B9019091BA01281B390BC9
:100F80002F733070C90108952091B7013091B801D5
:100F90008091B9019091BA012817390719F42FEF00
:100FA0003FEF09C0E091B901F091BA01E958FE4F55
:100FB0008081282F30E0C90108952091B701309138
:100FC000B8018091B9019091BA012817390719F435
:100FD0002FEF3FEF13C0E091B901F091BA01E9584A
:100FE000FE4F20818091B9019091BA0101968F73D3
:100FF00090709093BA018093B90130E0C9010895CF
:101000001092BE011092BD0188EE93E0A0E0B0E026
:101010008093BF019093C001A093C101B093C2011E
:1010200089E491E09093BC018093BB0108950F93F4
:101030001F93DF93CF930F92CDB7DEB78C016983F7
:1010400080913601882369F083E0BE016F5F7F4F96
:1010500041E050E00E9441051816190614F49C0165
:1010600007C081E090E0F8019383828320E030E0C4
:10107000C9010F90CF91DF911F910F91089583E0E7
:101080000E9416050895CF93DF9312C082E00E945C
:10109000A1042FEF8F3F9207C9F0E091B701F091C3
:1010A000B801E958FE4F8083D093B801C093B701CF
:1010B000C091B701D091B8012196CF73D0708091C3
:1010C000B9019091BA01C817D90701F7DF91CF9103
:1010D0000895FC0180818E5F808380E862E672E083
:1010E00042E450E00E94BA040895FC01818190819D
:1010F000913A59F4813209F04CC080E06FE271E01E
:1011000047E050E00E94BA0442C0913209F041C069
:10111000803239F48FE291E067E070E00E94FE04D3
:1011200036C0823209F035C08281809336018091C9
:101130002F0190913001A0913101B0913201805B7B
:101140009440A040B04019F58091360180FD12C056
:1011500087E797E790930108809300082BE088E1E8
:1011600090E00FB6F894A895809360000FBE20938E
:1011700060000DC088E10FB6F89480936000109273
:1011800060000FBEA895109201081092000881E03F
:10119000089580E00895EE0FFF1F0590F491E02D73
:0611A0000994F894FFCF52
:1011A600234D435520436F6E6E6563746564204F0F
:1011B6004B0023494F20457870616E646572206646
:1011C6006F756E6420617420307830300001010044
:1011D600E100000000000000000000BA02F4035C19
:1011E6000319030C03000000001708F403B607DD1B
:0811F60007C4073F084308008D
:00000001FF
